{
  "transactions": [
    {
      "hash": "0x689ba7dfcc00f03150b7bc760d4987e65f626a56ece69698ac3c05b42a2fecdb",
      "transactionType": "CALL",
      "contractName": null,
      "contractAddress": "0x6daa439054602609d18644b0d83c2b687ae96445",
      "function": "commitFrontend(bytes32,bytes32[])",
      "arguments": [
        "0x512b069c27ce4d2fc6e460ca01bca4111f4f52188673c0d3e15174d555da0860",
        "[0xac0bd22a1e1f45d0804628a26dee089f207a91fbc137b25454ed2ae4cea347c5]"
      ],
      "transaction": {
        "from": "0x0f42fe7d3609cad5b5c1c93b5cfb22c8481f3fed",
        "to": "0x6daa439054602609d18644b0d83c2b687ae96445",
        "gas": "0x282d3",
        "value": "0x0",
        "input": "0xd0b1d59a512b069c27ce4d2fc6e460ca01bca4111f4f52188673c0d3e15174d555da086000000000000000000000000000000000000000000000000000000000000000400000000000000000000000000000000000000000000000000000000000000001ac0bd22a1e1f45d0804628a26dee089f207a91fbc137b25454ed2ae4cea347c5",
        "nonce": "0x9",
        "chainId": "0xaa36a7"
      },
      "additionalContracts": [],
      "isFixedGasLimit": false
    }
  ],
  "receipts": [
    {
      "status": "0x1",
      "cumulativeGasUsed": "0x64762f",
      "logs": [],
      "logsBloom": "0x00000000000000000000000000000000000000000000000000000000000000000000000000000000000000000000000000000000000000000000000000000000000000000000000000000000000000000000000000000000000000000000000000000000000000000000000000000000000000000000000000000000000000000000000000000000000000000000000000000000000000000000000000000000000000000000000000000000000000000000000000000000000000000000000000000000000000000000000000000000000000000000000000000000000000000000000000000000000000000000000000000000000000000000000000000000",
      "type": "0x0",
      "transactionHash": "0x689ba7dfcc00f03150b7bc760d4987e65f626a56ece69698ac3c05b42a2fecdb",
      "transactionIndex": "0x2a",
      "blockHash": "0x5b862075fb049036cbd34ca44055f16bf85d883be10588875713e63baa8f7a68",
      "blockNumber": "0x5b31fe",
      "gasUsed": "0x1b78a",
      "effectiveGasPrice": "0x53f7a5a6",
      "from": "0x0f42fe7d3609cad5b5c1c93b5cfb22c8481f3fed",
      "to": "0x6daa439054602609d18644b0d83c2b687ae96445",
      "contractAddress": null
    }
  ],
  "libraries": [],
  "pending": [],
  "returns": {},
  "timestamp": 1716662282,
  "chain": 11155111,
  "commit": "83207b3"
}