{
  "transactions": [
    {
      "hash": "0xaa0442942e2ea12efeb3ac45d9122f9772ab4c6e55a121e37bb90300ac274e03",
      "transactionType": "CALL",
      "contractName": null,
      "contractAddress": "0x6daa439054602609d18644b0d83c2b687ae96445",
      "function": "commitFrontend(bytes32,bytes32[])",
      "arguments": [
        "0x9ab1b693d0830d6a2dc75cb68af002a1b4f63d01810793b1b3484f4fdd61d015",
        "[0xac0bd22a1e1f45d0804628a26dee089f207a91fbc137b25454ed2ae4cea347c5]"
      ],
      "transaction": {
        "from": "0x0f42fe7d3609cad5b5c1c93b5cfb22c8481f3fed",
        "to": "0x6daa439054602609d18644b0d83c2b687ae96445",
        "gas": "0x282d3",
        "value": "0x0",
        "input": "0xd0b1d59a9ab1b693d0830d6a2dc75cb68af002a1b4f63d01810793b1b3484f4fdd61d01500000000000000000000000000000000000000000000000000000000000000400000000000000000000000000000000000000000000000000000000000000001ac0bd22a1e1f45d0804628a26dee089f207a91fbc137b25454ed2ae4cea347c5",
        "nonce": "0xa",
        "chainId": "0xaa36a7"
      },
      "additionalContracts": [],
      "isFixedGasLimit": false
    }
  ],
  "receipts": [
    {
      "status": "0x1",
      "cumulativeGasUsed": "0x60e40d",
      "logs": [],
      "logsBloom": "0x00000000000000000000000000000000000000000000000000000000000000000000000000000000000000000000000000000000000000000000000000000000000000000000000000000000000000000000000000000000000000000000000000000000000000000000000000000000000000000000000000000000000000000000000000000000000000000000000000000000000000000000000000000000000000000000000000000000000000000000000000000000000000000000000000000000000000000000000000000000000000000000000000000000000000000000000000000000000000000000000000000000000000000000000000000000",
      "type": "0x0",
      "transactionHash": "0xaa0442942e2ea12efeb3ac45d9122f9772ab4c6e55a121e37bb90300ac274e03",
      "transactionIndex": "0x33",
      "blockHash": "0xe9ced9076cc9e6e7fcd1110a74f66d53b76968a4d7eda84088749db1b2e697d4",
      "blockNumber": "0x5b3216",
      "gasUsed": "0x1b78a",
      "effectiveGasPrice": "0x48ad7d34",
      "from": "0x0f42fe7d3609cad5b5c1c93b5cfb22c8481f3fed",
      "to": "0x6daa439054602609d18644b0d83c2b687ae96445",
      "contractAddress": null
    }
  ],
  "libraries": [],
  "pending": [],
  "returns": {},
  "timestamp": 1716662611,
  "chain": 11155111,
  "commit": "83207b3"
}